:100000000C942A000C9447000C9447000C94470071
:100010000C9447000C9447000C9447000C94470044
:100020000C9447000C9447000C9447000C94470034
:100030000C9447000C9447000C9447000C94470024
:100040000C9447000C9447000C9447000C94470014
:100050000C94470011241FBECFE5D4E0DEBFCDBF16
:1000600012E0A0E6B0E0ECECFAE102C005900D92DF
:10007000AE34B107D9F712E0AEE4B2E001C01D9290
:10008000A938B107E1F70E942E010C94640D0C947D
:100090000000A0E0B0E0BC01CD010E94F00726E620
:1000A00036E64CE950E40E9472060E949C049B01D3
:1000B000AC0160936C0230936D02CB010895A0E017
:1000C000B0E0BC01CD010E94F00728EB3EE145E520
:1000D00050E40E9472060E949C049B01AC01609354
:1000E0006A0230936B02CB0108951F93CF93DF9385
:1000F00010E0C9E1D0E081E00E94450382E00E9467
:100100004503AB9A88E893E1FE013197F1F7019737
:10011000D9F7AB9880E690E061E00E94690380E146
:1001200097E2FE013197F1F70197D9F781E00E943C
:10013000450382E00E9445031F5F1430E1F6DF9122
:10014000CF911F910895CF92DF92EF92FF920F937C
:100150001F93CF93DF938FE690E061E00E946903E5
:10016000A89ACFE6D2E09DE7C92E90E0D92E80E58F
:10017000E82E83ECF82E09E110E02EC08F5F80930B
:100180006E02815000D000D000D0EDB7FEB731969E
:10019000ADB7BEB71296DC93CE931197D382C282CD
:1001A000848315820E94C30A8DB79EB706960FB648
:1001B000F8949EBF0FBE8DBFCE0162E00E9469031E
:1001C000AB9AC7010197F1F7AB9880E49FE1F80182
:1001D0003197F1F70197D9F780916E02853070F26F
:1001E000A8988FE692E068E870E00E94BC0A8FE66B
:1001F00092E062E00E946903DF91CF911F910F911D
:10020000FF90EF90DF90CF9008958FEF84BB80E850
:1002100084BF84BF0E9402038CE090E00E94A4028D
:100220000E9461020E94A30081E00E94450382E0D7
:100230000E94450389E990E061E00E94690387EA32
:1002400090E062E00E94690380E29EE429E130E0F0
:10025000F9013197F1F70197D9F708958F929F929D
:10026000AF92BF92CF92DF92FF920F931F93CF93E3
:10027000DF930E94050181E00E94450382E00E9415
:1002800045030E947F04F2E5CF2EF2E0DF2EEEEA76
:100290008E2EE0E09E2ECEE4D2E07EEBA72E70E024
:1002A000B72E0E9486040E949504F82E8091690260
:1002B000882349F40E948B040E949504909367025E
:1002C0008093660210C00E948B0400916602109118
:1002D00067020E949504080F191F16950795109341
:1002E000670200936602809169028F5F80936902C2
:1002F000809169028436C1F51092690260916602AC
:100300007091670280E090E00E94F00728EB3EE1E8
:1003100045E550E40E9472060E949C0470936B02B3
:1003200060936A02709367026093660200D000D007
:1003300000D0EDB7FEB73196ADB7BEB71296DC92DE
:10034000CE92119793828282758364830E94C30A3E
:100350008DB79EB706960FB6F8949EBF0FBE8DBFA1
:10036000C60162E00E94690380916802882349F413
:100370000E948F040E94950490936302809362020E
:1003800010C00E948F0400916202109163020E94CB
:100390009504080F191F1695079510936302009393
:1003A0006202809168028F5F809368028091680288
:1003B000843609F5109268026091620270916302BE
:1003C00080E090E00E94F00726E636E64CE950E433
:1003D0000E9472060E949C049B0170936D026093C0
:1003E0006C027093630260936202220F331F30939A
:1003F000650220936402ADB7BEB718970FB6F894A4
:10040000BEBF0FBEADBFEDB7FEB731961296DC93FF
:10041000CE931197B382A2828F2D86958483158205
:100420008091640290916502978386830E94C30A3B
:100430008DB79EB708960FB6F8949EBF0FBE8DBFBE
:10044000CE0161E00E94690391E59F1578F08091EB
:10045000660290916702895E934040F48091640245
:1004600090916502895E934008F41BCF0E9475004D
:100470008EEC90E061E00E9469030E944C028AEDDC
:1004800090E00E94B4028AE10E94AC028CEF90E0FE
:1004900061E00E94690305CF85E091E00E94B4020B
:1004A00082E290E00E94AC028EE091E00E94B402F1
:1004B00082E290E00E94AC028DE090E00E94AC02EB
:1004C00008958CE191E061E070E00E9469038CE2A4
:1004D00091E00E94B40280E197E229E130E0F90165
:1004E0003197F1F70197D9F78DE090E00E94AC02C7
:1004F00080E197E229E130E0F9013197F1F70197C6
:10050000D9F78FE291E00E94B40280E593EC019765
:10051000F1F78DE090E00E94AC0280E197E229E1E2
:1005200030E0F9013197F1F70197D9F789E391E0CC
:100530000E94690380E197E229E130E0F9013197F7
:10054000F1F70197D9F70895599A90BD89B988E1D3
:100550008AB986E880BD08955D9BFECF8CB9089569
:100560005F9BFECF8CB10895FC0120E533EC07C002
:100570005D9BFECF8CB9C9010197F1F7319680815F
:100580008823B1F708958CEF87BB0895C39AC39869
:100590000895982F662311F0C29A01C0C29888B3BB
:1005A0008F7088BB88B39295907F892B88BB81E040
:1005B0008A95F1F7C39AC39885E88A95F1F708956B
:1005C0001F93182F82958F7061E00E94C902812FBE
:1005D0008F7061E00E94C90283E08A95F1F71F9154
:1005E00008951F93182F82958F7060E00E94C902B2
:1005F000812F8F7060E00E94C90283E08A95F1F735
:100600001F9108951F938CEF87BB8CE49DE10197A8
:10061000F1F783E060E00E94C902C39AC39882EEBA
:1006200094E0FC013197F1F7C39AC39815E3212FA9
:100630002A95F1F7C39AC3980197F1F782E060E039
:100640000E94C902812F8A95F1F788E20E94F10287
:10065000812F8A95F1F780E10E94F102812F8A951E
:10066000F1F786E00E94F102812F8A95F1F78CE084
:100670000E94F1021A95F1F781E00E94F10284EFE5
:1006800091E00197F1F71F910895FF920F931F9347
:10069000823011F400EC01C000E8802F0E94F102CA
:1006A00085E38A95F1F710E085E3F82E80E20E9459
:1006B000E0028F2D8A95F1F71F5F1431B9F7802F73
:1006C0000E94F10285E38A95F1F71F910F91FF9047
:1006D0000895CF93DF93EC01613011F480E803C0FB
:1006E000623039F480EC0E94F10203C00E94E00203
:1006F000219688818823D1F7DF91CF9108950F93B8
:100700001F93CF93DF93EC01162F042F83E00E94F9
:10071000F102113011F480E803C0123019F480ECBA
:100720000E94F102102F04C084E10E94F1021150D6
:100730001123D1F703C00E94E0022196888188230B
:10074000D1F7DF91CF911F910F9108950F931F93D0
:10075000CF93DF93EC0187E00E94F1028FE80E94C3
:10076000F10288E10E94F10200E513EC06C00E944C
:10077000E0022196C8010197F1F788818823B9F733
:10078000DF91CF911F910F910895EF92FF920F93F8
:100790001F93DF93CF9300D000D00F92CDB7DEB779
:1007A0009C018B01FE01319685E0DF011D928A9547
:1007B000E9F7FE0135960DC0C9016AE070E00E94BC
:1007C0005E0A8083C9016AE070E00E945E0A9B01B4
:1007D00031972115310581F7BFEF0F3F1B0779F4E2
:1007E00020E030E0AE014F5F5F4F02C02F5F3F4F10
:1007F000FA01E20FF31F80818823C1F304C025E0D2
:1008000030E0201B310B7E010894E11CF11CE20E4C
:10081000F31E890108C0F70181917F01805D0E946C
:10082000E0020F5F1F4F05301105ACF30F900F90E2
:100830000F900F900F90CF91DF911F910F91FF902C
:10084000EF900895EF92FF920F931F93DF93CF9352
:1008500000D000D00F92CDB7DEB79C018B01FE0116
:10086000319685E0DF011D928A95E9F7FE01359604
:100870000DC0C9016AE070E00E945E0A8083C90170
:100880006AE070E00E945E0A9B01319721153105F4
:1008900081F7BFEF0F3F1B0779F420E030E0AE0196
:1008A0004F5F5F4F02C02F5F3F4FFA01E20FF31F10
:1008B00080818823C1F304C025E030E0201B310B88
:1008C0007E010894E11CF11CE20EF31E890108C0B0
:1008D000F70181917F01805D0E94E0020F5F1F4F51
:1008E00005301105ACF30F900F900F900F900F9003
:1008F000CF91DF911F910F91FF90EF90089587B1F5
:1009000017B886EC86B986E886B9089587B117B816
:1009100086EC86B90895389A86EC86B9089587B131
:1009200017B8399A86EC86B90895349BFECF349A6D
:1009300024B135B1C9010895EF92FF920F931F932F
:100940007B018C0120E030E040E05FE40E946C0716
:1009500088238CF0C801B70120E030E040E05FE47C
:100960000E9414060E949C079B01AC01205030405D
:100970004040504806C0C801B7010E949C079B0137
:10098000AC01B901CA011F910F91FF90EF9008953A
:10099000A0E0B0E0EEECF4E00C94850ADC012B0161
:1009A000FA019C91923008F439C1EB0188818230C0
:1009B00008F433C1943069F4843009F02FC11196E2
:1009C0009C9111978981981709F428C1A5E4B1E099
:1009D00025C1843009F421C18230A9F4923009F094
:1009E0001DC19A01AD0188E0EA010990AE01E9015B
:1009F00009929E018150C1F7E201898111969C9173
:100A00008923818308C1923009F407C112962D9081
:100A10003C901397EB018A819B811496AD90BD9019
:100A2000CD90DC901797EC80FD800E811F819101A5
:100A3000281B390BB90137FF04C066277727621BD3
:100A4000730B603271050CF061C0121613066CF561
:100A500037014801062E04C09694879477946794D2
:100A60000A94D2F721E030E040E050E004C0220FC9
:100A7000331F441F551F6A95D2F721503040404024
:100A800050402E213F21402351232115310541059E
:100A9000510521F021E030E040E050E079018A0189
:100AA000E628F728082919293CC0232BD1F1260E66
:100AB000371E35014601062E04C09694879477941C
:100AC00067940A94D2F721E030E040E050E004C09F
:100AD000220F331F441F551F6A95D2F72150304013
:100AE000404050402A213B214C215D2121153105F8
:100AF0004105510521F021E030E040E050E059018E
:100B00006A01A628B728C828D9280BC082159305E2
:100B10002CF01C01AA24BB24650103C0EE24FF2491
:100B2000870111969C91D20111968C91981709F426
:100B300045C0992339F0A80197012A193B094C09AE
:100B40005D0906C0A60195012E193F09400B510B06
:100B500057FD08C011823382228224833583468365
:100B600057831DC081E081833382228288279927A1
:100B7000DC01821B930BA40BB50B84839583A683A6
:100B8000B7830DC0220F331F441F551F24833583A5
:100B90004683578382819381019793838283248143
:100BA000358146815781DA01C9010197A109B1094F
:100BB0008F5F9F4FAF4FBF4328F30BC091833382AA
:100BC0002282EA0CFB1C0C1D1D1DE482F5820683AB
:100BD000178383E08083248135814681578157FFC5
:100BE0001AC0C901AA2797FDA095BA2F81709070ED
:100BF000A070B0705695479537952795822B932B0B
:100C0000A42BB52B84839583A683B783828193819C
:100C1000019693838283DF0101C0D201CD01CDB75C
:100C2000DEB7E2E10C94A10AA0E2B0E0EAE1F6E06E
:100C30000C94910A69837A838B839C832D833E83F2
:100C40004F835887E9E0EE2EF12CEC0EFD1ECE010D
:100C50000196B7010E948D098E010F5E1F4FCE01D4
:100C60000596B8010E948D098A8991E089278A8BAF
:100C7000C701B801AE01475E5F4F0E94C8040E94E1
:100C8000B808A096E6E00C94AD0AA0E2B0E0EBE470
:100C9000F6E00C94910A69837A838B839C832D837D
:100CA0003E834F835887F9E0EF2EF12CEC0EFD1EAA
:100CB000CE010196B7010E948D098E010F5E1F4F74
:100CC000CE010596B8010E948D09C701B801AE0199
:100CD000475E5F4F0E94C8040E94B808A096E6E0F5
:100CE0000C94AD0AA0E2B0E0E8E7F6E00C94850AC7
:100CF00069837A838B839C832D833E834F835887BC
:100D0000CE010196BE01675F7F4F0E948D09CE0123
:100D10000596BE016F5E7F4F0E948D0999859230C6
:100D200088F089898230C8F0943019F4823051F407
:100D300004C0843029F4923081F485E491E0C6C087
:100D4000923049F420E09A858A89981321E02A8715
:100D5000CE010996BBC0823049F420E09A858A8989
:100D6000981321E02A8BCE014196B0C02D843E8499
:100D70004F8458886D887E888F88988CEE24FF2455
:100D80008701AA24BB24650140E050E060E070E0E8
:100D9000E0E0F0E0C10181709070892BE9F0E60C91
:100DA000F71C081D191D9A01AB012A0D3B1D4C1D96
:100DB0005D1D80E090E0A0E0B0E0E614F7040805D7
:100DC000190520F481E090E0A0E0B0E0BA01A901AB
:100DD000480F591F6A1F7B1FAA0CBB1CCC1CDD1CB3
:100DE00097FE08C081E090E0A0E0B0E0A82AB92A10
:100DF000CA2ADB2A3196E032F10549F0660C771CED
:100E0000881C991C5694479437942794C3CFFA852D
:100E1000EA892B893C898B859C85280F391F2E5F99
:100E20003F4F17C0CA0181709070892B61F01695F1
:100E30000795F794E79480E090E0A0E0B0E8E82A16
:100E4000F92A0A2B1B2B76956795579547952F5FA7
:100E50003F4F77FDE7CF0CC0440F551F661F771F2C
:100E600017FD4160EE0CFF1C001F111F2150304088
:100E7000403090E0590790E0690790E4790760F30B
:100E80002B8F3C8FDB01CA018F779070A070B07000
:100E900080349105A105B10561F447FD0AC0E11454
:100EA000F1040105110529F0405C5F4F6F4F7F4F42
:100EB00040781A8EFE1711F081E08A8F4D8F5E8F79
:100EC0006F8F78A383E0898FCE0149960E94B8087E
:100ED000A096E2E10C94A10AA8E1B0E0E2E7F7E015
:100EE0000C94910A69837A838B839C832D833E8340
:100EF0004F83588789E0E82EF12CEC0EFD1ECE01C1
:100F00000196B7010E948D098E010F5E1F4FCE0121
:100F10000596B8010E948D098985823040F0898943
:100F2000823028F0C701B8010E94050A01C08FEF86
:100F30006896E6E00C94AD0AACE0B0E0E2EAF7E0D7
:100F40000C94950A69837A838B839C83CE010196E6
:100F5000BE016B5F7F4F0E948D098D81823061F1F0
:100F6000823050F1843021F48E81882351F12EC0DB
:100F70002F81388537FD20C06E812F3131051CF05F
:100F80006623F9F023C08EE190E0821B930B298544
:100F90003A854B855C8504C05695479537952795CE
:100FA0008A95D2F76623B1F05095409530952195FA
:100FB0003F4F4F4F5F4F0EC020E030E040E050E029
:100FC00009C02FEF3FEF4FEF5FE704C020E030E0B4
:100FD00040E050E8B901CA012C96E2E00C94B10A55
:100FE000A8E0B0E0E6EFF7E00C948D0A7B018C01FD
:100FF000611571058105910519F482E0898360C04E
:1010000083E089838EE1C82ED12CDC82CB82ED82F5
:10101000FE820F831887C801B7010E946908FC018E
:101020003197F7FF3BC0222733272E1B3F0B570179
:101030006801022E04C0D694C794B794A7940A946A
:10104000D2F740E050E060E070E081E090E0A0E0A6
:10105000B0E004C0880F991FAA1FBB1F2A95D2F7C2
:101060000197A109B1098E219F21A023B1230097E7
:10107000A105B10521F041E050E060E070E04A29AF
:101080005B296C297D294D835E836F8378878EE190
:1010900090E08E1B9F0B9C838B8312C0309781F056
:1010A0000E2E04C0EE0CFF1C001F111F0A94D2F775
:1010B000ED82FE820F831887CE1ADF0ADC82CB8294
:1010C0001A82CE0101960E94B8082896EAE00C9494
:1010D000A90AEF92FF920F931F937B018C0180E08E
:1010E000E81680E0F80681E0080780E0180788F439
:1010F0008FEFE816F1040105110531F028F088E0C2
:1011000090E0A0E0B0E017C080E090E0A0E0B0E0A8
:1011100012C080E0E81680E0F80680E0080781E071
:10112000180728F088E190E0A0E0B0E004C080E17A
:1011300090E0A0E0B0E020E230E040E050E0281B8A
:10114000390B4A0B5B0B04C016950795F794E7948F
:101150008A95D2F7F701E35BFE4F8081281B3109A6
:1011600041095109C9011F910F91FF90EF90089516
:10117000DF92EF92FF920F931F93FC01E480F580C2
:1011800006811781D1808081823048F480E090E030
:10119000A0E1B0E0E82AF92A0A2B1B2BA5C0843075
:1011A00009F49FC0823021F4EE24FF24870105C09A
:1011B000E114F1040105110519F4E0E0F0E096C036
:1011C000628173819FEF623879070CF05BC022E87F
:1011D0003FEF261B370B2A3131052CF020E030E0A1
:1011E00040E050E02AC0B801A701022E04C0769565
:1011F0006795579547950A94D2F781E090E0A0E073
:10120000B0E004C0880F991FAA1FBB1F2A95D2F710
:101210000197A109B1098E219F21A023B123009735
:10122000A105B10521F081E090E0A0E0B0E09A01D5
:10123000AB01282B392B4A2B5B2BDA01C9018F77A5
:101240009070A070B07080349105A105B10539F49B
:1012500027FF09C0205C3F4F4F4F5F4F04C0215C08
:101260003F4F4F4F5F4FE0E0F0E02030A0E03A0703
:10127000A0E04A07A0E45A0710F0E1E0F0E07901AD
:101280008A0127C06038710564F5FB01E158FF4F02
:10129000D801C7018F779070A070B070803491052D
:1012A000A105B10539F4E7FE0DC080E490E0A0E0AF
:1012B000B0E004C08FE390E0A0E0B0E0E80EF91EDB
:1012C0000A1F1B1F17FF05C016950795F794E79493
:1012D000319687E016950795F794E7948A95D1F7AC
:1012E00005C0EE24FF248701EFEFF0E06E2F679535
:1012F00066276795902F9F77D794DD24D7948E2FFC
:101300008695492F462B582F5D29B701CA011F9199
:101310000F91FF90EF90DF900895FC01DB01408179
:1013200051812281622F6F7770E0221F2227221FB6
:101330009381892F880F822B282F30E0991F9927BE
:10134000991F11969C93119721153105A9F5411507
:1013500051056105710511F482E037C082E89FEF05
:1013600013969C938E9312979A01AB0167E0220F1C
:10137000331F441F551F6A95D1F783E08C930DC02E
:10138000220F331F441F551F12968D919C91139766
:10139000019713969C938E931297203080E0380724
:1013A00080E0480780E4580758F314962D933D9346
:1013B0004D935C93179708952F3F310579F44115AC
:1013C00051056105710519F484E08C93089564FF5B
:1013D00003C081E08C9312C01C9210C02F57304084
:1013E00013963C932E93129783E08C9387E0440FDF
:1013F000551F661F771F8A95D1F7706414964D9319
:101400005D936D937C93179708951F93DC01FB0107
:101410009C91923008F447C08081823008F443C028
:10142000943051F411961C91843099F58181682F84
:1014300070E0611B71093FC0843021F0923031F4BB
:101440008230B9F18181882389F12DC011961C91D8
:1014500011978230F1F081811817D9F412962D91ED
:101460003C911397828193818217930794F02817F8
:101470003907BCF014968D919D910D90BC91A02DD3
:101480002481358146815781281739074A075B0730
:1014900018F4112341F00AC082179307A407B50777
:1014A00040F4112319F061E070E005C06FEF7FEFA9
:1014B00002C060E070E0CB011F91089597FB092EF8
:1014C00007260AD077FD04D00CD006D000201AF4ED
:1014D000709561957F4F0895F6F7909581959F4F90
:1014E0000895AA1BBB1B51E107C0AA1FBB1FA6176B
:1014F000B70710F0A61BB70B881F991F5A95A9F7BD
:1015000080959095BC01CD0108952F923F924F9206
:101510005F926F927F928F929F92AF92BF92CF9283
:10152000DF92EF92FF920F931F93CF93DF93CDB78C
:10153000DEB7CA1BDB0B0FB6F894DEBF0FBECDBF04
:1015400009942A88398848885F846E847D848C84D5
:101550009B84AA84B984C884DF80EE80FD800C81DE
:101560001B81AA81B981CE0FD11D0FB6F894DEBFC1
:101570000FBECDBFED010895FB01DC0101900D927E
:101580000020E1F70895AEE0B0E0E9ECFAE00C9459
:10159000930A0D891E8986E08C831A8309838FEF55
:1015A0009FE79E838D839E01275E3F4FCE0101966C
:1015B0006F89788DA9010E94E70A2F813885020F73
:1015C000131FF80110822E96E4E00C94AF0AABE0F2
:1015D000B0E0EDEEFAE00C94850A3C012B015A01D3
:1015E000FC0117821682838181FD03C06FEF7FEFBC
:1015F000C6C19AE0892E1E010894211C311CF301FA
:101600002381F20123FD859123FF81912F018823FE
:1016100009F4B2C1853239F423FD859123FF81910C
:101620002F01853229F490E0B3010E94DA0CE7CF54
:10163000982FFF24EE249924FFE1FF15D0F09B3270
:1016400069F09C3228F4903259F0933291F40EC034
:101650009D3249F0903369F441E024C052E0F52A0C
:1016600084E0F82A28C098E0F92A25C0E0E1FE2AA3
:1016700022C0F7FC29C0892F80538A3070F4F6FE0F
:1016800005C0989C902C1124980E15C0E89CE02C65
:101690001124E80EF0E2FF2A0EC09E3229F4F6FC77
:1016A0006BC140E4F42A07C09C3619F450E8F52ACF
:1016B00002C0983649F4F20123FD959123FF9191E0
:1016C0002F01992309F0B8CF892F8554833018F062
:1016D0008052833038F444E050E0A40EB51E5FE33E
:1016E00059830FC0933631F0933779F0933509F071
:1016F00056C020C0F5018081898342E050E0A40EED
:10170000B51E610101E010E012C0F501C080D1807A
:10171000F6FC03C06FEF7FEF02C0692D70E042E07E
:1017200050E0A40EB51EC6010E94CF0C8C015FE7ED
:10173000F52214C0F501C080D180F6FC03C06FEF24
:101740007FEF02C0692D70E042E050E0A40EB51EAC
:10175000C6010E94C40C8C0150E8F52AF3FE07C0B4
:101760001AC080E290E0B3010E94DA0CEA948E2D58
:1017700090E008171907A8F30EC0F601F7FC859151
:10178000F7FE81916F0190E0B3010E94DA0CE11045
:10179000EA94015010400115110579F7EAC094361A
:1017A00011F0993669F5F7FE08C0F5012081318105
:1017B0004281538184E090E00AC0F50180819181EB
:1017C0009C01442737FD4095542F82E090E0A80EFD
:1017D000B91E9FE6F92257FF09C0509540953095F4
:1017E00021953F4F4F4F5F4FE0E8FE2ACA01B901F4
:1017F000A1012AE030E00E94060DD82ED21840C088
:10180000953729F41F2D1F7E2AE030E01DC01F2DC3
:10181000197F9F3661F0903720F4983509F0ACC0FD
:101820000FC0903739F0983709F0A6C004C028E0FF
:1018300030E00AC0106114FD146020E130E004C003
:1018400014FD166020E132E017FF08C0F501608149
:1018500071818281938144E050E008C0F50180816C
:101860009181BC0180E090E042E050E0A40EB51E02
:10187000A1010E94060DD82ED2188FE7F82EF12272
:10188000F6FE0BC05EEFF522D91438F4F4FE07C063
:10189000F2FC05C08FEEF82202C01D2D01C0192DEB
:1018A000F4FE0DC0FE01ED0DF11D8081803319F4B1
:1018B00099EEF92208C01F5FF2FE05C003C08F2D0C
:1018C000867809F01F5F0F2DF3FC14C0F0FE0FC0E7
:1018D0001E1510F09D2C0BC09D2C9E0C911A1E2DD8
:1018E00006C080E290E0B3010E94DA0C1F5F1E1573
:1018F000C0F304C01E1510F4E11A01C0EE2404FF69
:101900000FC080E390E0B3010E94DA0C02FF1DC01B
:1019100001FD03C088E790E00EC088E590E00BC0B1
:10192000802F867891F001FF02C08BE201C080E237
:10193000F7FC8DE290E0B3010E94DA0C06C080E370
:1019400090E0B3010E94DA0C9A94D914C0F3DA94AF
:10195000F101ED0DF11D808190E0B3010E94DA0CE0
:10196000DD20A9F706C080E290E0B3010E94DA0C06
:10197000EA94EE20C1F743CEF30166817781CB0173
:101980002B96E2E10C94A10AFC0105906150704095
:101990000110D8F7809590958E0F9F1F0895FC0138
:1019A0006150704001900110D8F7809590958E0F8E
:1019B0009F1F08950F931F93CF93DF938C01EB012B
:1019C0008B8181FF1BC082FF0DC02E813F818C81E6
:1019D0009D812817390764F4E881F9810193F9831F
:1019E000E88306C0E885F985802F0995892B31F4B5
:1019F0008E819F8101969F838E8302C00FEF1FEF20
:101A0000C801DF91CF911F910F910895FA01AA2784
:101A1000283051F1203181F1E8946F936E7F6E5F31
:101A20007F4F8F4F9F4FAF4FB1E03ED0B4E03CD0DF
:101A3000670F781F891F9A1FA11D680F791F8A1FC2
:101A4000911DA11D6A0F711D811D911DA11D20D029
:101A500009F468943F912AE0269F11243019305DE3
:101A60003193DEF6CF010895462F4770405D4193D4
:101A7000B3E00FD0C9F7F6CF462F4F70405D4A3321
:101A800018F0495D31FD4052419302D0A9F7EACFE9
:101A9000B4E0A6959795879577956795BA95C9F718
:101AA00000976105710508959B01AC010A2E06940B
:101AB0005795479537952795BA95C9F7620F731FC4
:0C1AC000841F951FA01D0895F894FFCF0F
:101ACC005761726E696E67212121212121210057F6
:101ADC0061726D696E672075702E2E2E0025642044
:101AEC007365636F6E6473005761726D207570203F
:101AFC00636F6D706C65746500486F6D6520536520
:101B0C006375726974790053797374656D00434F12
:101B1C00203D2025642070706D2020202000543D35
:101B2C002564204C50473D256470706D2000536532
:101B3C006E64696E6720534D53005761726E696E07
:101B4C0067212121212121212042756C64696E6756
:101B5C00206973206F6E206669726500534D5320A7
:101B6C0053656E740041542B434D47533D002B3944
:101B7C00313937363231373532353600496E697482
:101B8C0069616C697A696E672E2E2E004154004192
:101B9C00542B434D47463D3100496E697469616C65
:101BAC00697A65640000000000000000000001027A
:101BBC0002030303030404040404040404050505DC
:101BCC0005050505050505050505050505060606B6
:101BDC000606060606060606060606060606060699
:101BEC000606060606060606060606060607070786
:101BFC000707070707070707070707070707070769
:101C0C000707070707070707070707070707070758
:101C1C000707070707070707070707070707070748
:101C2C000707070707070707070707070708080835
:101C3C000808080808080808080808080808080818
:101C4C000808080808080808080808080808080808
:101C5C0008080808080808080808080808080808F8
:101C6C0008080808080808080808080808080808E8
:101C7C0008080808080808080808080808080808D8
:101C8C0008080808080808080808080808080808C8
:101C9C0008080808080808080808080808080808B8
:0E1CAC000808080808080808080808080800C2
:00000001FF
